:100000000C94630B0C94880B0C94880B0C94880B49
:100010000C94880B0C94880B0C94880B0C94880B14
:100020000C94880B0C94880B0C94B70C0C94880BD4
:100030000C94880B0C94880B0C94880B0C94880BF4
:100040000C94880B0C94880B0C94880B0C94880BE4
:100050000C94880B0C94880B0C94880B0C94880BD4
:100060000C94880B0C94880B0C94880B0C94880BC4
:100070000C94880B0C94880B0C94880B0C94880BB4
:100080000C94880B0C94880B0C94EA220C94880B2B
:100090000C94880B0C94880B0C94880B0C94880B94
:1000A0000C94880B0C94880B0C94880B0C94880B84
:1000B0000C94880B0C94880B0C94880B0C94B7232D
:1000C0000C94880B0C947B270C94880B0C94880B55
:1000D0000C94880B0C94880B0C94880B0C94880B54
:1000E0000C94880B0C94880B0C94880B0C94880B44
:1000F0000C94880B0C94880B0C94880B0C94880B34
:100100000C94880B0C94880B0C94880B0C94880B23
:100110000C94880B0C9456270C94880B0C94880B29
:100120000C94880B0C94880B0C94880B0C94880B03
:100130000C94880B0C94880B0C94880B0C94222341
:100140000C9421260C94880B0C94880B0C94880B2F
:100150000C94880B0C94EB260C94880B0C94880B55
:100160000C94880B0C94880B0C94880B0C94880BC3
:100170000C94880B0C94880B0C94880B0C94880BB3
:100180000C94880B0C94880B0C94880B0C94880BA3
:100190000C94880B0C94880B0C94880B0C94880B93
:1001A0000C94880B0C94880B0C94880B0C94880B83
:1001B0000C94880B0C94880B0C94880B0C94880B73
:1001C0000C94880B0C94880B0C94880B0C94880B63
:1001D0000C94880B0C94880B0C94880B0C94880B53
:1001E0000C94880B0C94880B0C94880B0C94880B43
:1001F0000C94880B0C94F6460C94880B6364696E1F
:100200006F70737578585B001E03430068006100CF
:100210006D0065006C0065006F006E002D004D00E4
:1002200069006E00690000002A034B006100730042
:100230007000650072002000260020004F0073004F
:10024000770061006C006400200047006D006200D0
:10025000480000000403090409023E00020100C036
:10026000320904000001020201000524001001040B
:100270002402060524060001070582030800FF0981
:10028000040100020A00000007050402100005072F
:100290000583021000051201100102000008D016AB
:1002A000B20401000102DC01610D620D630D640DF9
:1002B000650D660D670D680D6B0D6C0D000000017E
:1002C0007A24E6240525272A2D2A312A670D322A89
:1002D000EF2B022C400007007A24E6240525422C4F
:1002E0006F2C732C670D742CD732F332000404008A
:1002F0007A24E6240525512C6F2C732C670D742C61
:10030000D732F332000407007A24E6240525602C56
:100310006F2C732C670D742CD732F332001004004D
:100320007A24E6240525602C6F2C732C670D742C21
:10033000D732F332001007007A24E6240525640D35
:10034000650D660D670D680D6B0D6C0D00000001ED
:1003500096250F264E281D3620362D362E3653363E
:100360006B0D6C0D000000007A24E6240525063F85
:10037000253F293F670D2A3FA141B4419C03070057
:100380007A24E6240525E73E253F293F670D2A3FCD
:10039000A141B4411C0207007A24E6240525C83E89
:1003A000253F293F670D2A3FA141B441B400070012
:1003B000004E4F4E4500000000000000000000000D
:1003C000000000000000000000000000000000002D
:1003D00000014D465F554C5452414C49474854002A
:1003E000000000000000000000000000000000000D
:1003F0000000024D465F434C41535349435F314B2C
:1004000000000000000000000000000000000000EC
:10041000000000034D465F434C41535349435F3155
:100420004B5F3742000000000000000000000000A9
:1004300000000000044D465F434C41535349435F65
:10044000344B00000000000000000000000000002D
:100450000000000000054D465F434C4153534943A3
:100460005F344B5F374200000000000000000000D6
:100470000000000000000649534F3134343433414A
:100480005F534E4946460000000000000000000097
:10049000000000000000000749534F31343434336A
:1004A000415F5245414445520000000000000000F9
:1004B0000000000000000000084E54414732313671
:1004C000000000000000000000000000000000002C
:1004D000000000000000000000094E544147323186
:1004E00035000000000000000000000000000000D7
:1004F000000000000000000000000A4E5441473296
:100500003133000000000000000000000000000087
:1005100000000000000000000000000100000100D9
:1005200001010000010100010000010001010001C2
:1005300000000101000001000101000001010001B3
:1005400000000101000001000101000100000100A4
:100550000101000001010001000001000101000192
:100560000000010100000100010100010000010084
:100570000101000001010001000001010000010073
:100580000101000001010001000001000101000162
:100590000000010100000100010100000101000153
:1005A0000000010100000100010100010000010044
:1005B0000101000001010001000001010000010033
:1005C0000101000001010001000001000101000122
:1005D0000000010100000100010100010000010014
:1005E0000101000001010001000001000101000102
:1005F00000000101000001000101000001010001F3
:1006000000000101000001000101000100000100E3
:100610000101000001010001000001008040C02034
:10062000A060E0109050D030B070F0088848C82822
:10063000A868E8189858D838B878F8048444C424CE
:10064000A464E4149454D434B474F40C8C4CCC2CC2
:10065000AC6CEC1C9C5CDC3CBC7CFC028242C2228C
:10066000A262E2129252D232B272F20A8A4ACA2AC2
:10067000AA6AEA1A9A5ADA3ABA7AFA068646C6266E
:10068000A666E6169656D636B676F60E8E4ECE2E62
:10069000AE6EEE1E9E5EDE3EBE7EFE018141C1213B
:1006A000A161E1119151D131B171F1098949C92992
:1006B000A969E9199959D939B979F9058545C5253E
:1006C000A565E5159555D535B575F50D8D4DCD2D32
:1006D000AD6DED1D9D5DDD3DBD7DFD038343C323FC
:1006E000A363E3139353D333B373F30B8B4BCB2B32
:1006F000AB6BEB1B9B5BDB3BBB7BFB078747C727DE
:10070000A767E7179757D737B777F70F8F4FCF2FD1
:10071000AF6FEF1F9F5FDF3FBF7FFF004E4F4E4524
:1007200000000000000000000000000000000000C9
:1007300000000000000000000000000001554944D6
:100740005F52414E444F4D00000000000000000089
:1007500000000000000000000000000000025549F9
:10076000445F4C4546545F494E4352454D454E54B7
:100770000000000000000000000000000000035521
:1007800049445F52494748545F494E4352454D459D
:100790004E540000000000000000000000000004B3
:1007A0005549445F4C4546545F44454352454D4589
:1007B0004E54000000000000000000000000000097
:1007C000055549445F52494748545F4445435245A3
:1007D0004D454E54000000000000000000000000E5
:1007E00000064359434C455F53455454494E4753C3
:1007F00000000000000000000000000000000000F9
:1008000000000753544F52455F4D454D0000000016
:1008100000000000000000000000000000000000D8
:1008200000000008524543414C4C5F4D454D0000CF
:1008300000000000000000000000000000000000B8
:100840000000000009544F47474C455F4649454C5E
:100850004400000000000000000000000000000054
:1008600000000000000A53544F52455F4C4F4700B0
:100870000000000000000000000000000000000078
:10088000000000000000004F46460000000000008D
:100890000000000000000000000000000000000058
:1008A00000000000000000014D454D4F525900006E
:1008B0000000000000000000000000000000000038
:1008C0000000000000000000024C495645000000F6
:1008D0000000000000000000000000000000000018
:1008E000000000000000000000004E4F4E450000D8
:1008F00000000000000000000000000000000000F8
:100900000000000000000000000001504F57455259
:10091000454400000000000000000000000000004E
:100920000000000000000000000000025445524D8D
:10093000494E414C5F434F4E4E0000000000000006
:1009400000000000000000000000000003544552B9
:100950004D494E414C5F5258545800000000000071
:1009600000000000000000000000000000045345EB
:100970005454494E475F4348414E474500000000EC
:100980000000000000000000000000000000054D15
:10099000454D4F52595F53544F524544000000009B
:1009A0000000000000000000000000000000000641
:1009B0004D454D4F52595F4348414E474544000015
:1009C0000000000000000000000000000000000027
:1009D00008434F4445435F525800000000000000A8
:1009E0000000000000000000000000000000000007
:1009F0000009434F4445435F545800000000000085
:100A000000000000000000000000000000000000E6
:100A10000000074649454C445F444554454354450E
:100A20004400000000000000000000000000000082
:100A30000000000A4C4F474D454D5F46554C4C0059
:100A400000000000000000000000000000000000A6
:100A50000000000025632C25630025356400416EED
:100A60007920696E74656765722066726F6D2030DB
:100A700020746F2025752E205265666572656E6341
:100A80006520766F6C746167652077696C6C206295
:100A9000652028564343202A205448524553484F46
:100AA0004C44202F203430393529206D562E002516
:100AB00075002535640030203D206E6F2074696D0F
:100AC000656F75740D0A312D363030203D20313080
:100AD00030206D73202D203630303030206D732063
:100AE00074696D656F7574002575206D730025340C
:100AF0002E345800253575206D5600257520286642
:100B0000726F6D207768696368202575206E6F6E3F
:100B10002D766F6C6174696C6529002575002575EB
:100B20000025632C25630052414E444F4D004E4F2B
:100B3000205549442E004368616D656C656F6E4DAC
:100B4000696E692052657647202553207573696E5A
:100B500067204C55464120255320636F6D70696CAA
:100B600065642077697468204156522D47434320BD
:100B700025532E204261736564206F6E2074686572
:100B8000206F70656E2D736F75726365204E4643DE
:100B900020746F6F6C204368616D656C656F6E4D7E
:100BA000696E692E2068747470733A2F2F676974A8
:100BB0006875622E636F6D2F656D7365632F436873
:100BC000616D656C656F6E4D696E6920636F6D6DEB
:100BD00069742025530031373034303600313531D7
:100BE00031313500342E392E3100653733326563AB
:100BF00030000D0A000D0A000D0A000D0A000D0A52
:100C0000000D0A00643130303A4F4B000000000004
:100C100000000000000000000000000000000000D4
:100C20000000000000653130313A4F4B20574954E5
:100C30004820544558540000000000000000000007
:100C40000000000000006E3131303A5741495449EC
:100C50004E4720464F5220584D4F44454D0000000E
:100C600000000000000000C83230303A554E4B4EB4
:100C70004F574E20434F4D4D414E44000000000061
:100C80000000000000000000C93230313A494E56E1
:100C9000414C494420434F4D4D414E442055534112
:100CA000474500000000000000CA3230323A494E89
:100CB00056414C494420504152414D455445520003
:100CC00000000000000000000000783132303A4699
:100CD000414C5345000000000000000000000000EF
:100CE0000000000000000000000000793132313ABD
:100CF00054525545000000000000000000000000B4
:100D0000000000000000000000000000CB32303383
:100D10003A54494D454F5554000000000000000072
:100D200000000000000000000000000000564552D6
:100D300053494F4E0000000000000000000000007A
:100D40000000002819434F4E4649470000000000AC
:100D500000000000000000000050194A19554944E5
:100D60000000000000000000000000000000000083
:100D700000A6196719524541444F4E4C59000000D6
:100D8000000000000000000000041AF81955504C43
:100D90004F414400000000000000000000311A0034
:100DA0000000000000444F574E4C4F4144000000EB
:100DB0000000000000361A000000000000524553F9
:100DC000455400000000000000000000003B1A0035
:100DD000000000000055504752414445000000000B
:100DE0000000000000461A0000000000004D454DC4
:100DF00053495A45000000000000000000000000B8
:100E0000000000511A55494453495A45000000005A
:100E10000000000000000000000000691A52425566
:100E200054544F4E0000000000000000000000007D
:100E300000861A7F1A52425554544F4E5F4C4F4E03
:100E4000470000000000000000A21A9B1A4C425507
:100E500054544F4E0000000000000000000000004D
:100E600000BE1AB71A4C425554544F4E5F4C4F4E69
:100E7000470000000000000000DA1AD31A4C454475
:100E8000475245454E0000000000000000000000F1
:100E900000F61AEF1A4C4544524544000000000089
:100EA000000000000000000000121B0B1B4C4F470D
:100EB0004D4F44450000000000000000000000000D
:100EC000002C1B271B4C4F474D454D0000000000D8
:100ED0000000000000000000000000411B4C4F47D4
:100EE000444F574E4C4F41440000000000661B0029
:100EF00000000000004C4F4753544F524500000083
:100F000000000000006B1B0000000000004C4F4779
:100F1000434C45415200000000000000006E1B00E1
:100F2000000000000053455454494E4700000000A3
:100F3000000000000000000000761B711B434C45C0
:100F4000415200000000000000000000007F1B0074
:100F5000000000000053544F524500000000000004
:100F60000000000000831B00000000000052454309
:100F7000414C4C00000000000000000000871B00F6
:100F800000000000004348415247494E470000001E
:100F900000000000000000000000008B1B48454CD2
:100FA00050000000000000000000000000931B0043
:100FB00000000000005253534900000000000000F0
:100FC0000000000000000000000000CF1B53595338
:100FD0005449434B000000000000000000000000E6
:100FE000000000021C53454E445F52415700000070
:100FF00000000000000000A81C0000000053454E47
:101000004400000000000000000000000000001E7E
:101010001C000000004745545549440000000000F2
:101020000000000000641D00000000000044554D59
:10103000505F4D46550000000000000000471D00B5
:1010400000000000004944454E5449465900000044
:101050000000000000811D00000000000054494D08
:10106000454F555400000000000000000000000043
:1010700000BE1D9E1D5448524553484F4C4400002D
:10108000000000000000000000221E0A1E46494524
:101090004C440000000000000000000000000000C0
:1010A000006E1E981E0000000000000000000000FE
:1010B000000000000000000000000000000400012B
:1010C0000901000000000000000000000000000016
:1010D000000000004E58500000000000000000001A
:1010E000000000004D4946415245204D696E69009F
:1010F00000000000000000000000000000000000F0
:1011000000000000000000000000000000000000DF
:1011100000000000000000000000000000000000CF
:1011200000000000040001080100000000000000B1
:1011300000000000000000000000004E58500000B9
:1011400000000000000000000000004D4946415230
:101150004520436C617373696320316B00000000AC
:10116000000000000000000000000000000000007F
:10117000000000000000000000000000000000006F
:101180000000000000000000000000020001180143
:10119000000000000000000000000000000000004F
:1011A00000004E5850000000000000000000000049
:1011B00000004D494641524520436C617373696399
:1011C00020346B0000000000000000000000000060
:1011D000000000000000000000000000000000000F
:1011E00000000000000000000000000000000000FF
:1011F00000004400010001000000000000000000A9
:101200000000000000000000004E585000000000E8
:101210000000000000000000004D494641524520FA
:10122000556C7472616C696768740000000000009E
:1012300000000000000000000000000000000000AE
:10124000000000000000000000000000000000009E
:101250000000000000000000004403012001757739
:101260008102800000000000000000000000050076
:101270004E58500000000000000000000000000078
:101280004D49464152452044455346697265000028
:10129000000000000000000000000000000000004E
:1012A000000000000000000000000000000000003E
:1012B000000000000000000000000000000000002E
:1012C00044030120017577810280000000000000C6
:1012D000000000000005004E585000000000000013
:1012E000000000000000004D4946415245204445A1
:1012F0005346697265204556310000000000000029
:1013000000000000000000000000000000000000DD
:1013100000000000000000000000000000000000CD
:101320000000000000000004030128013877B14AE2
:10133000434F5033310000000000000009014942D2
:101340004D000000000000000000000000004A43C3
:101350004F5033310000000000000000000000008A
:10136000000000000000000000000000000000007D
:10137000000000000000000000000000000000006D
:101380000000000000000000000000000000480015
:101390000120017877B1024A434F50763234310050
:1013A0000000000C0149424D000000000000000058
:1013B00000000000004A434F5033312076322E3473
:1013C0002E310000000000000000000000000000BE
:1013D000000000000000000000000000000000000D
:1013E00000000000000000000000000000000000FD
:1013F000000000000048000120013833B14A434F8B
:10140000503431563232000000000C0149424D0088
:101410000000000000000000000000004A434F50A0
:1014200034312076322E320000000000000000002F
:1014300000000000000000000000000000000000AC
:10144000000000000000000000000000000000009C
:10145000000000000000000000000000040001285F
:10146000013833B14A434F503431563233310000E2
:10147000000D0149424D0000000000000000000086
:101480000000004A434F5034312076322E332E3143
:10149000000000000000000000000000000000004C
:1014A000000000000000000000000000000000003C
:1014B000000000000000000000000000000000002C
:1014C000000000040001880100000000000000008E
:1014D00000000000000000000000496E66696E65B3
:1014E0006F6E00000000000000004D49464152456B
:1014F00020436C617373696320316B00000000004E
:1015000000000000000000000000000000000000DB
:1015100000000000000000000000000000000000CB
:10152000000000000000000000000200019801001F
:1015300000000000000000000000000000000000AB
:101540000047656D706C75730000000000000000BE
:10155000004D50434F530000000000000000000009
:10156000000000000000000000000000000000007B
:10157000000000000000000000000000000000006B
:10158000000000000000000000000000000000005B
:1015900000000C010000000000000000000000003E
:1015A0000000000000000000496E6E6F76697369EC
:1015B0006F6E2052265400004A6577656C0000006B
:1015C000000000000000000000000000000000001B
:1015D000000000000000000000000000000000000B
:1015E00000000000000000000000000000000000FB
:1015F00000000000000000000200013801000000AF
:101600000000000000000000000000000000004E8C
:101610006F6B696100000000000000000000004DD9
:10162000494641524520436C617373696320346BB2
:10163000202D20656D756C6174656420283632310B
:101640003220436C6173736963290000000000005D
:101650000000000000000000000000000000000882
:101660000001380100000000000000000000000040
:101670000000000000004E6F6B6961000000000078
:101680000000000000004D494641524520436C6176
:101690007373696320346B202D20656D756C6174E4
:1016A0006564202836313331204E4643290000003E
:1016B000000000000000000000000000000000002A
:1016C00000000000000011241FBECFEFCDBFDFE3FC
:1016D000DEBF00E00CBF18BE19BE1ABE1BBE11E271
:1016E000A0E0B0E2EAE8F1EA00E00BBF02C0079038
:1016F0000D92A238B107D9F71BBE12E3A2E8B1E2FE
:1017000001C01D92A734B107E1F73BD00C94C35040
:1017100025C13BB78BBFFB01879196913BBF0895D5
:101720003BB78BBFCB0142E20D94F00F3BB70B01EF
:1017300043E20D94F00F3BB78BBFCB0145E20D9414
:10174000F00F3BB746E208C02091CF0127FDFCCF48
:1017500022272093CA0108954093CA0128ED31E061
:10176000209334003093CB016091C4017091C50186
:101770008091C60199270895FC014093CA01849184
:1017800008950ED10E9462160E94E116C2D21092F4
:10179000520684E08093420682E680938601C1E08F
:1017A000C0932606C093210686E080932206C0934C
:1017B000310602E00093320610922A0613E01093DD
:1017C000290689E5809380018AE58093810180E480
:1017D00080934106809346069091B200907F90934B
:1017E000B2009091B20092609093B20090E3909317
:1017F00041069093460680935006C0934606009398
:1018000045061093410683E18093010821E030E012
:10181000209326083093270820932808309329081E
:1018200010928C0880938008109223031092210359
:10183000D8E0D093220381E18093200380911E2081
:1018400090911F2080933803909339038CE3809309
:101850008203D093800380938303D09381036FD15D
:101860000E948C18C0D131D7C0930002109201029F
:101870000093020210930402C0932002D09321022D
:101880000E942A1519D1D2E0C1E18091030481FFA1
:1018900025C08091010480FDFCCFD0930304B8D112
:1018A0000E94BE181AD70E945D160E94E516E091AC
:1018B000592BF0915A2B19950E947F210E942918CB
:1018C000E091682BF091692B8781813011F4C093EE
:1018D0008B298681813011F4C0938A290E94901847
:1018E000BAD7E091572BF091582B1995E091512BD5
:1018F000F091522B1995C9CF292F3327223031056A
:1019000059F02330310569F021303105F9F482E1D5
:1019100090E026E932E01EC08EE390E028E532E058
:1019200019C099278130910541F08230910541F02D
:10193000892B61F4E4E5F2E005C0E8E2F2E002C0E0
:10194000E8E0F2E0849190E09F0104C080E090E044
:1019500020E030E0FA012083318308951F920F9236
:101960000FB60F92112408B60F9218BEFFCF1F9228
:101970000F920FB60F92112408B60F9218BE8F93D4
:101980009F938EB19FB180589F4F8EB99FB99F9101
:101990008F910F9008BE0F900FBE0F901F9018955B
:1019A0008091780083FF0AC088E08093780088EDFA
:1019B00084BF81E0809380000D94FE008BEC8093C7
:1019C00052008091500088608093500080915100B7
:1019D00083FFFCCF82EC80935500809150008061A2
:1019E000809350008091510084FFFCCF88ED84BF2C
:1019F00084E0809340001EB81FB881E080934300CC
:101A00002FE730E020930A0430930B0420930C045A
:101A100030930D04809300048093020480E8809347
:101A20000001089588ED84BF81E0809379000895D6
:101A300088ED84BF8BE180938000089580915000F1
:101A40008260809350008091510081FFFCCF82E042
:101A50008093CA01EDE1F0E0E491E0936200ECE1F3
:101A6000F0E0E491E09363001092CA0180E8809373
:101A700065008BEB8093660080915600897F809390
:101A800056008091560084608093560080916000DB
:101A90008160809360000895E0E4F0E084818E7FAF
:101AA0008483E0E6F0E080818E7F8083E0E5F0E0F3
:101AB00080818D7F8083089587E08093A200789451
:101AC000089508950895089508950895089508952E
:101AD00080E090E00895089508950F931F93CF93A9
:101AE000DF931F92CDB7DEB70DE41BE2D80112964B
:101AF000ED91FC911397898319950E94B721E0918C
:101B0000682BF091692B89818583B8E18B9FB001A7
:101B1000112468557D4F48E150E0C8010E94DB491F
:101B2000D801ED91FC911995D8011696ED91FC9193
:101B300017970F90DF91CF911F910F91199448E162
:101B400050E068EA72E08DE49BE20E94DB49E0919C
:101B5000682BF091692B8581C0CF0F931F93E09183
:101B6000682BF091692B8B019C0145816BE080EB28
:101B700093E00E94C6171F910F910895FF920F9353
:101B80001F93CF93DF931F92CDB7DEB78C019E01D9
:101B90002F5F3F4FAC016BE080EB93E00E94DE17BC
:101BA000F82E882389F0898198DFF80140E081913F
:101BB000882319F04F5F4F31D1F7E091652BF091F9
:101BC000662BB80181E119958F2D0F90DF91CF9190
:101BD0001F910F91FF9008959B01AC016BE080EB8A
:101BE00093E00C94051808950C94CD4908951F9323
:101BF000CF93DF93C82FD92F162F180F1C1721F062
:101C00000E94CD498993FACFDF91CF911F9108951A
:101C10000E94CD490E94CD490E94CD490C94CD49E6
:101C2000EF92FF920F931F93CF93DF937C0161504C
:101C30007109FA018A01020F131FDC0140E050E034
:101C4000E017F107F1F062307105D8F09191392F6A
:101C500032953F703A3010F4305D01C0395C3C93EE
:101C60009F709A3010F4905D01C0995C9701240F29
:101C7000351FE90199831296625071094E5F5F4FDB
:101C8000DFCF1C92CA01DF91CF911F910F91FF907E
:101C9000EF900895CF93DF93EC01DA01E0E0F0E0FC
:101CA0004C91442391F111969C911197992339F10C
:101CB000E617F70721F180ED840F8A3020F08FEBD3
:101CC000840F8630D0F480ED890F8A3020F02FEB1E
:101CD000290F263090F4242F30E0413410F02753A0
:101CE00031092295207F913410F4982F01C0975329
:101CF000292B299331961296D3CF80E004C01196F8
:101D00008C91811102C090E001C0CF01DF91CF9191
:101D10000895E0E6F6E080E1858382E0868388E04E
:101D200085838AE18183E0EAF9E01682178280ECFC
:101D3000858388E18483E0E0F1E0128A8BE6838B7F
:101D4000148A158A20EA208F99E0918F128E148EC2
:101D5000158E168E84E0808B12A23CE633A314A26B
:101D600015A210A611A612A624A795A716A680A3B1
:101D700008954115510509F449C020E120936606F4
:101D800023E02093A0092091A10927FFFCCF2091F7
:101D9000A0097093A0092091A10927FFFCCF2091F1
:101DA000A0096093A0092091A10927FFFCCF2091F1
:101DB000A00921E02093120180931C0190931D0142
:101DC00040931401509315011092220182E891E290
:101DD0008093280190932901409324015093250179
:101DE00080911001806880931001809120018068AB
:101DF000809320018091100187FDFCCF80E38093C8
:101E000011018093210180E18093650608954115B9
:101E1000510509F469C020E12093660626E020936D
:101E2000A0092091A10927FFFCCF2091A00920E162
:101E300020936506000000002093660622E02093B0
:101E4000A0092091A10927FFFCCF2091A009709340
:101E5000A0092091A10927FFFCCF2091A009609340
:101E6000A0092091A10927FFFCCF2091A009109281
:101E7000120122E831E220931C0130931D014093AE
:101E800014015093150120E1209322018093280131
:101E900090932901409324015093250180911001D2
:101EA00080688093100180912001806880932001D8
:101EB0008091100187FDFCCF80E380931101809316
:101EC000210180E180936506E091682BF091692BF8
:101ED0008781863019F481E180938B298681863051
:101EE00019F481E180938A290895CF92DF92EF92CD
:101EF000FF92CF93DF93C090672BD12CE12CF12C74
:101F00008DE0CC0CDD1CEE1CFF1C8A95D1F7C114B2
:101F1000D10481E0E806F10408F04EC080E180932E
:101F2000660686E08093A0098091A10987FFFCCF17
:101F30008091A00980E180936506000000008093F5
:101F4000660682E08093A0098091A10987FFFCCFFB
:101F50008091A0091092A0098091A10987FFFCCF70
:101F60008091A0091092A0098091A10987FFFCCF60
:101F70008FEFE81AF80A8091A009C0E0D0E1C7010C
:101F8000B601C7DB8093A0098091A10987FFFCCF30
:101F90008091A0099093A0098091A10987FFFCCFAF
:101FA0008091A00982E0C80ED11CE11CF11C219790
:101FB00031F780E180936506DF91CF91FF90EF903C
:101FC000DF90CF900895CF92DF92EF92FF92CF9360
:101FD000DF93C090672BD12CE12CF12C8DE0CC0C41
:101FE000DD1CEE1CFF1C8A95D1F7C114D10481E0E1
:101FF000E806F10438F0DF91CF91FF90EF90DF9089
:10200000CF9073CF8FEFE81AF80AC1E2D0E02197A2
:1020100091F39ADBC701B60183DB96DB8FEFD81A09
:10202000E80AF80AF4CFCF92DF92EF92FF920F9373
:102030001F93CF93DF93C090672BD12CE12CF12C11
:102040008DE0CC0CDD1CEE1CFF1C8A95D1F7C11471
:10205000D10481E0E806F10408F04FC080E18093EC
:10206000660683E08093A0098091A10987FFFCCFD9
:102070008091A0091092A0098091A10987FFFCCF4F
:102080008091A0091092A0098091A10987FFFCCF3F
:102090008FEFE81AF80A8091A009C1E2D0E02197F9
:1020A00049F152DB4EDB50DB00E010E01092A0095A
:1020B0008091A10987FFFCCF6091A00970E0109288
:1020C000A0098091A10987FFFCCF8091A009782BFE
:1020D000C8012CDB39DB0E5F1F4F011581E01807AB
:1020E00029F7C701B60127DB2FDB8FEFD81AE80AE3
:1020F000F80AD5CF80E180936506E091682BF091D6
:10210000692B8781863019F490E190938B29968111
:10211000963049F420E120938A29853059F483E1EF
:1021200080938B2902C08530D1F3953019F483E177
:1021300080938A29DF91CF911F910F91FF90EF90AB
:10214000DF90CF900895CF92DF92EF92FF920F939E
:102150001F934115E0E25E076105710508F06BC051
:102160006901E12CF12C00E010E220E030E0041BDA
:10217000150B260B370BC016D106E206F30610F43A
:102180009701860120E12093660626E02093A009AE
:102190002091A10927FFFCCF2091A00920E12093E5
:1021A0006506000000002093660622E02093A00947
:1021B0002091A10927FFFCCF2091A0095093A009ED
:1021C0002091A10927FFFCCF2091A0094093A009ED
:1021D0002091A10927FFFCCF2091A00910921201A4
:1021E00022E831E220931C0130931D010093140179
:1021F0001093150120E120932201809328019093F0
:102200002901009324011093250180911001806819
:10221000809310018091200180688093200180913B
:10222000100187FDFCCF80E3809311018093210191
:1022300080E18093650681E01F910F91FF90EF9000
:10224000DF90CF900895CF92DF92EF92FF920F939D
:102250001F934115E0E25E076105710508F05DC05E
:102260006901E12CF12C00E010E220E030E0041BD9
:10227000150B260B370BC016D106E206F30610F439
:102280009701860120E12093660623E02093A009B0
:102290002091A10927FFFCCF2091A0095093A0090C
:1022A0002091A10927FFFCCF2091A0094093A0090C
:1022B0002091A10927FFFCCF2091A00921E02093C4
:1022C000120180931C0190931D010093140110933F
:1022D00015011092220182E891E2809328019093E7
:1022E0002901009324011093250180911001806839
:1022F000809310018091200180688093200180915B
:10230000100187FDFCCF80E38093110180932101B0
:1023100080E18093650681E001C080E01F910F910C
:10232000FF90EF90DF90CF9008958091CF0187FDCF
:10233000FCCF0895FADF8091CF0181FF0BC086E3C7
:102340008093CA01EBECF1E021E030E088ED90E011
:1023500084BF20830895EF92FF920F931F93CF9332
:10236000DF931F921F92CDB7DEB77C018A011092D6
:10237000C20169837A83D9DF6981A62F7A81B72F59
:10238000C701800F911F26E048ED50E061E070E04A
:10239000EBECF1E0E816F90689F0E092C0013F2D80
:1023A0003F713093C1012093CA0144BF60833091D3
:1023B000C4013D933FEFE31AF30AECCFC8010F903D
:1023C0000F90DF91CF911F910F91FF90EF900895A3
:1023D0002F923F924F925F926F927F928F929F9235
:1023E000AF92BF92CF92DF92EF92FF920F931F9323
:1023F000CF93DF9300D0CDB7DEB76A01282F2F71BE
:102400001C01221A310829836A837B8393DF8DDFC5
:1024100083E38093CA011092C1011092C2016A81C4
:10242000E62E7B81F72E860185E3582E98ED892EC6
:10243000912C66246394712C3BECA32EBB24B394A3
:1024400043E3442E29810115110509F12093C001B0
:10245000F70181917F018093C4010150110919F0A6
:102460002F5F203281F72092C001832D8F718093DE
:10247000C1015092CA01C401F50184BF608290E29B
:10248000290E311C52DF4092CA0120E0DCCFC60188
:102490002396CDBFDEBFDF91CF911F910F91FF90AB
:1024A000EF90DF90CF90BF90AF909F908F907F90F4
:1024B0006F905F904F903F902F9008951F93CF9310
:1024C000DF93CDB7DEB7A097CDBFDEBF853009F46F
:1024D000AEC078F4823081F128F4813009F0EEC08A
:1024E00010E01BC0833009F453C0843009F475C078
:1024F000E5C0883009F4D3C040F4863009F4CDC07B
:10250000873009F0DBC08FDDD9C0893009F4C9C03C
:102510008A3009F0D3C080D3D1C08091632B1817C3
:1025200008F0A8C061DBE1E0F0E0EC0FFD1FE10F77
:10253000F11D80831F5FF1CF11E08091632B873005
:1025400009F010E0E0915D2BF0915E2BCE01019639
:1025500019954091632B31E0141708F08BC0332399
:10256000A9F0812F90E0E1E0F0E0EC0FFD1FE80F13
:10257000F91F208131E02F3F09F030E0E1E0F0E089
:10258000EC0FFD1FE80FF91F2F5F20831F5FE4CFC3
:10259000E0915D2BF0915E2BCE0101961995809113
:1025A000632B41E0815008F465C04423D9F3282F00
:1025B00030E0E1E0F0E0EC0FFD1FE20FF31F90814F
:1025C00041E09F3F09F040E0E1E0F0E0EC0FFD1F4B
:1025D000E20FF31F9F5F9083E5CF11E08091632BA3
:1025E000873009F010E0E0915D2BF0915E2BCE0179
:1025F000019619954091632B31E01417D8F53323D8
:10260000A1F0812F90E0E1E0F0E0EC0FFD1FE80F7A
:10261000F91F208131E0211130E0E1E0F0E0EC0F22
:10262000FD1FE80FF91F215020831F5FE6CFE091C7
:102630005D2BF0915E2BCE01019619958091632B55
:1026400041E08150B8F04423E1F3282F30E0E1E08D
:10265000F0E0EC0FFD1FE20FF31F908141E09111BC
:1026600040E0E1E0F0E0EC0FFD1FE20FF31F9150BE
:102670009083E7CFE0915F2BF091602BCE01019624
:102680001995E091652BF091662B4091632BBE016B
:102690006F5F7F4F83E1199511C05DD30FC025DCBB
:1026A0000DC080910008813021F480918C08833026
:1026B00019F00E94432202C00E946822A096CDBF5A
:1026C000DEBFDF91CF911F910895E0E0F6E080E654
:1026D000828388E1868B858B0895CF93C09108060D
:1026E000C095C6FF12C0809184218A3050F08A3094
:1026F000E1F4E091682BF091692B8181DFDE80911C
:1027000084218F5F8093842110C08C2F807669F4A0
:102710008091842181508A3030F4E091682BF091CF
:10272000692B8081CBDE10928421C5FF12C080917D
:1027300083218A3050F08A30D9F4E091682BF091EF
:10274000692B8381BBDE809183218F5F80938321FE
:102750000FC0C07669F48091832181508A3030F4B3
:10276000E091682BF091692B8281A8DE1092832181
:10277000CF9108959B01AC016BE08BE197E045C4DC
:1027800020E030E090E0F901E80FF91FE959F44D3D
:102790006383265F3F4F20353105A9F708950F93D6
:1027A0001F939B01E091682BF091692BE80FF11DBD
:1027B0008A0140816BE08BE197E0E8D31F910F9194
:1027C00008950F931F93CF93DF931F92CDB7DEB77A
:1027D000082FAB019E012F5F3F4F6BE08BE197E02D
:1027E000EDD3182F882319F06981802FC9DF812F3D
:1027F0000F90DF91CF911F910F9108950895EF925F
:10280000FF920F931F93CF937B01C42F2EB13FB143
:102810000091080410910904022B132B682F83E008
:1028200090E20E94E1476C2F83E090E20E94E14732
:10283000612F83E090E20E94E147602F83E090E205
:102840000E94E1476C2F70E0C701CF911F910F915B
:10285000FF90EF905BC408953F924F925F926F920A
:102860007F928F929F92AF92BF92CF92DF92EF9220
:10287000FF920F931F93CF93DF937C01E901C090E8
:102880000020D0900120960122503843C901A0E0D9
:10289000B0E0481759076A077B0708F05CC0E2E020
:1028A000CE1AE0E4DE0A2A013B014C0E5D1E611CDB
:1028B000711C481659066A067B0648F0241B350B26
:1028C0008E01021B130BE9013324339403C000E093
:1028D00010E0312C4601A12CB12C481559056A0590
:1028E0007B0510F5CA018E5F9F4B2A013B014C0E00
:1028F0005D1E611C711C481459046A047B0428F491
:10290000AE01BC01C70135DA18C0C41AD50AA60148
:10291000BC01C7012EDAAE014C195D096AE871E20B
:10292000C7018C0D9D1D07C04C195D09BA01665782
:102930007E4DAE01C7010E94094A311002C081E0FC
:102940000BC001501109D8F3F801EC0FFD1FEE0D7B
:10295000FF1D1082F6CF80E0DF91CF911F910F9184
:10296000FF90EF90DF90CF90BF90AF909F908F90AF
:102970007F906F905F904F903F90089520918621B7
:102980003091872180E098E0821B930BEAE8F1E226
:102990009F012A5831422817390710F41192F8CFB5
:1029A0008AE891E2809388219093892180E098E0E1
:1029B000809386219093872182E090E48093002089
:1029C0009093012042E050E060E070E480E090E20B
:1029D0001EDAE091682BF091692B87818A3019F417
:1029E00080E180938B2986818A3019F480E180937D
:1029F0008A2908958091862190918721905820916D
:102A0000002030910120821B930B089520E030E0DC
:102A1000F901E959F44D8783265F3F4F2035310591
:102A2000B9F7813049F018F0823059F008951092CA
:102A300085218EEF93E109C08093852185E895E19A
:102A400004C0109285218FEF93E18093652B9093C2
:102A5000662B08950F931F93CF93DF931F92CDB7EB
:102A6000DEB7E091682BF091692B8481CFDF8AE893
:102A700091E2809388219093892100E018E00093EF
:102A800086211093872141E050E0BE016F5F7F4FA8
:102A900080E090E060DCE0918821F0918921DF0105
:102AA000C8011D920197E9F78981882341F042E02E
:102AB00050E060E070E480E090E25BD917C082E013
:102AC00090E4809300209093012042E050E060E089
:102AD00070E480E090E29BD981E0898341E050E09E
:102AE000BE016F5F7F4F80E090E072DCE091652B6C
:102AF000F091662B40E060E070E08FEF19950F9049
:102B0000DF91CF911F910F9108950F931F93CF9352
:102B1000DF93AEB1BFB1C0910804D09109042091F8
:102B2000862130918721E42FF0E08F010C5F1F4F49
:102B30002017310758F1CA2BDB2B245031092E1BEB
:102B40003F0B2093862130938721A0918821B0915B
:102B500089218C9311964C9311971296DC931297BE
:102B6000CD01049680938821909389211396CC936C
:102B7000DB01EC01415018F02D912993FBCFE80FB8
:102B8000F91FE0938821F093892112C080E03EDF95
:102B9000E091682BF091692B87818A3019F481E1EB
:102BA00080938B2986818A3019F481E180938A2968
:102BB000DF91CF911F910F9108951F93CF93DF93D2
:102BC0001F92CDB7DEB79E012F5F3F4FAC0163E090
:102BD00086E898E0F3D1182F882311F0898116DF59
:102BE000812F0F90DF91CF911F9108950F931F9325
:102BF000E091682BF091692B8B019C01448163E08B
:102C000086E898E0C3D11F910F9108959B01AC0114
:102C100063E086E898E0F9C1CF93DF938091862145
:102C200090918721811528E0920708F043C06091B8
:102C3000002070910120C0E0D8E0AE01481B590B84
:102C400080E090E8861B970B8417950798F18AE837
:102C500091E2DDD82091862130918721809100205A
:102C600090910120985F821B930B8093002090939A
:102C70000120C21BD30BEAE8F1E2CF018A5891424E
:102C80008C179D0710F41192F8CF8AE891E2809397
:102C900088219093892180E098E080938621909309
:102CA000872142E050E060E070E480E090E2DF9154
:102CB000CF91ADC8DF91CF91089580918521811189
:102CC000ABCF089543E550E067E67BE281E090E01A
:102CD00042CB43E550E067E67BE281E090E078CBD1
:102CE000CF93DF93CFEFC80FC83078F5D82F0E946D
:102CF000B72199D9C093672B8AE0C89F900111240E
:102D0000C9018659944D8093682B9093692BF901E2
:102D1000E959F44D80850E946D0DE091682BF0918A
:102D2000692B848173DEE1D88FE18D0FE091682BF0
:102D3000F091692B9781943011F480938B299681BF
:102D4000943029F480938A2902C080E001C081E098
:102D5000DF91CF9108958091672B99E04AE09150DF
:102D600099F0282F30E02F5F3F4F27703327822FB5
:102D7000429FF001439FF00D1124E959F44D208545
:102D8000222369F38F5FACCF0895FC019091672BEC
:102D90009F5C908311820895CF93FC01C081818153
:102DA00081110CC0BF01E091652BF091662B41E0D1
:102DB00082E1199580ED8C0FCF9192CF80E0CF9179
:102DC000089588E180930106089580918A298231CF
:102DD00091F030F48031B9F050F48823A9F132C079
:102DE000833169F090EE980F983088F02BC088E01E
:102DF0008093050627C088E08093070623C0809152
:102E0000040683FF12C088E0809306061BC09091E1
:102E10008C299F5F923019F090938C2915C01092E5
:102E20008C299091040693FD04C088E080930506E8
:102E30000BC098E090930606803221F08150809379
:102E40008A2902C010928A2980918B29823191F0BF
:102E500030F48031C1F050F48823A9F132C08331BD
:102E600069F090EE980F983088F02BC080E1809345
:102E7000050627C080E18093070623C080910406E1
:102E800084FF12C080E1809306061BC090918D29BB
:102E90009F5F923019F090938D29089510928D299B
:102EA0009091040694FD04C080E180930506089586
:102EB00090E190930606803221F0815080938B2917
:102EC000089510928B2908959B01AC016BE089EE67
:102ED00098E09BC020E030E0982F90718870992393
:102EE00021F0F901E959F44D6287882321F0F901B5
:102EF000E959F44D6187265F3F4F2035310579F759
:102F0000992329F090E19093060610928B2988234B
:102F100029F088E08093060610928A2908950F937D
:102F20001F939B018A01803131F4E091682BF0916D
:102F3000692B478107C0883049F4E091682BF091F4
:102F4000692B46816BE089EE98E020D01F910F91AC
:102F500008950F931F93CF93DF931F92CDB7DEB7E2
:102F6000082FAB019E012F5F3F4F6BE089EE98E089
:102F700025D0182F882319F06981802FABDF812F8E
:102F80000F90DF91CF911F910F9108950F931F9391
:102F9000FC01662379F094916150941309C0BF013C
:102FA0006F5F7F4FA801C9010E94ED4981E003C016
:102FB000B196EFCF80E01F910F910895CF92DF92ED
:102FC000EF92FF921F93CF93DF93EC017A01690197
:102FD000162F112389F0BE016F5F7F4FC7010E943A
:102FE000E4491150892B31F4FE01C491F601C083EC
:102FF00081E003C0A196EDCF80E0DF91CF911F91DA
:10300000FF90EF90DF90CF900895CF930196CCE2A0
:103010006623C9F0FC01DA01AD017491772341F018
:1030200021153105A1F07D93319621503109F4CF5E
:10303000623030F02115310551F04F5F5F4FCC9376
:1030400061508196E5CF232B11F0FA011082CF91C8
:10305000089580912002806880932002809123024D
:1030600080FFFCCF81E080932302A0911002B091F9
:103070001102AE5BB109B7FF02C0A0E0B0E020E0F2
:1030800038EB4BE050E00E945349E091682BF091FF
:10309000692B61157105844F9140A8F487818730B1
:1030A00019F480E180938B298681873019F480E1BF
:1030B00080938A298091632B882389F0E091552B96
:1030C000F091562B19948781873019F481E1809310
:1030D0008B298681873019F481E180938A290895AC
:1030E000BC0183E090E20C949347CF93DF93FC0103
:1030F0006491EC012196662331F083E090E20E9416
:10310000E147CE01F4CFDF91CF910895AB01BC012F
:1031100083E090E20C94BD4780E2809362060895BC
:10312000CF93DF9380918E29823029F583E090E25E
:103130000E9446480E94154383E090E20E94624844
:10314000EC0197FD18C0E091682BF091692B878105
:10315000833019F483E180938B298681833019F4BD
:1031600083E180938A298C2F24D6811104C08C2F6F
:10317000DF91CF91C2C7DF91CF91089580918E29C1
:10318000813079F028F08230D9F0833011F12EC0EF
:103190008091680685FF2AC08FE08093022081E03D
:1031A0000CC08091022081508093022081111EC0AA
:1031B0000E941E0D0E94C04682E080938E2916C098
:1031C0008091680685FD12C08FE08093022083E025
:1031D000F4CF80910220815080930220811106C09B
:1031E0000E9485460E944C0D10928E2980918E2956
:1031F000823019F42ED70C947F210895E091682B2A
:10320000F091692B8781823019F481E180938B29B9
:103210008681823019F481E180938A290895E091B2
:10322000682BF091692B8781823019F480E18093BB
:103230008B298681823019F480E180938A29089550
:1032400083E090E20C946E4783E090E20C94B548E2
:103250002AEE3BE03F932F9324EE3BE03F932F93E6
:103260002DED3BE03F932F9326ED3BE03F932F93D3
:1032700026E33BE03F932F9322E02F931F929F93EF
:103280008F930E94724A8DB79EB70E968DBF9EBFD8
:1032900085E6089560E072E00E94AD0D85E6089530
:1032A000FB0120812F3349F42181211106C060E008
:1032B00072E00E94EC0D85E60895CB010E94BE0DE0
:1032C000882319F006DD84E608958AEC0895EF92CC
:1032D000FF920F931F93CF93DF93CDB7DEB7A097E5
:1032E000CDBFDEBF7C010091632B10E001151105FD
:1032F00091F48EE29BE09F938F9382E08F931F92D5
:10330000FF92EF920E94724A0F900F900F900F90D1
:103310000F900F9010C0E0915D2BF0915E2BCE01CD
:10332000019619959801AE014F5F5F4F60E072E022
:10333000C7010E94100E85E6A096CDBFDEBFDF91CB
:10334000CF911F910F91FF90EF900895DF92EF9230
:10335000FF920F931F93CF93DF93CDB7DEB7A09764
:10336000CDBFDEBF7B010091632B10E067E27BE005
:10337000C7010E94E449892B29F5D12CED2CF12CB1
:10338000E016F10658F40E94F40DE1E0F0E0EC0FD5
:10339000FD1FEE0DFF1D8083D394F0CFE0915F2BD6
:1033A000F091602BCE0101961995E091652BF0917B
:1033B000662B4091632BBE016F5F7F4F83E11995B0
:1033C00084E60BC0A70160E270E0CE0101960E9486
:1033D0004A0E8017910711F38AECA096CDBFDEBF8D
:1033E000DF91CF911F910F91FF90EF90DF900895A3
:1033F000FC018091642B882311F081E301C080E3FC
:103400008083118285E60895FB012181211127C067
:103410002081213321F481E08093642B04C0203388
:1034200021F41092642B84E608952F33C1F41F9287
:1034300020E32F931F9221E32F9321E23BE03F9360
:103440002F9322E02F931F929F938F930E94724A93
:103450008DB79EB70A968DBF9EBF85E608958AEC0C
:10346000089583EA90E174D48EE6089583E291E1B1
:103470008AD48EE60895E0ECF4E081818E7F81832A
:103480000E9485460E94120D84E60895E0ECF4E067
:1034900081818E7F81830E9485460E94180D84E67B
:1034A0000895EDE4FBE225892F9324892F932EE1E3
:1034B0003BE03F932F9322E02F931F929F938F9394
:1034C0000E94724A8DB79EB708968DBF9EBF85E653
:1034D00008952091632B1F922F932BE13BE03F93A4
:1034E0002F9322E02F931F929F938F930E94724AF3
:1034F0008DB79EB708968DBF9EBF85E6089540E0C4
:1035000052E0BC0180E04BD985E60895FB012081A3
:103510002F3341F42181211105C060E072E02AD9E6
:1035200085E6089580E04DD9882319F0D2DB84E642
:1035300008958AEC089540E052E0BC0181E02FD963
:1035400085E60895FB0120812F3341F4218121116B
:1035500005C060E072E00ED985E6089581E031D9BA
:10356000882319F0B6DB84E608958AEC089540E0DC
:1035700052E0BC0182E013D985E60895FB01208169
:103580002F3341F42181211105C060E072E0F2D8AF
:1035900085E6089582E015D9882319F09ADB84E640
:1035A00008958AEC089540E052E0BC0183E0F7D82A
:1035B00085E60895FB0120812F3341F421812111FB
:1035C00005C060E072E0D6D885E6089583E0F9D8BA
:1035D000882319F07EDB84E608958AEC089540E0A4
:1035E00052E0BC0180E19BDC85E60895FB0120816F
:1035F0002F3341F42181211105C060E072E064DCC9
:1036000085E6089580E1A5DC882319F062DB84E675
:1036100008958AEC089540E052E0BC0188E07FDC28
:1036200085E60895FB0120812F3341F4218121118A
:1036300005C060E072E048DC85E6089588E089DC3A
:10364000882319F046DB84E608958AEC089560E04B
:1036500072E0CCDA85E60895FB0120812F3341F436
:103660002181211105C060E072E0D0DA85E608957D
:10367000CB01A3DA882319F02CDB84E608958AECC9
:103680000895CF93DF93EC01B5D9813028E09207FC
:1036900018F09C01385002C020E030E03F932F9397
:1036A0009F938F932BEF3AE03F932F9382E08F937A
:1036B0001F92DF93CF930E94724A8DB79EB70A96EE
:1036C0008DBF9EBF85E6DF91CF9108958CE294E196
:1036D0005AD38EE60895A0DA84E608954FD984E699
:1036E000089560E072E051DB85E60895CB0154DB7C
:1036F000882319F0EEDA84E608958AEC08950E9492
:10370000E30F84E608950E94131084E608950E9452
:10371000750F84E608958091680680FD02C089E7F0
:10372000089588E70895DF92EF92FF920F931F9319
:10373000CF93DF93EC010FEF11E08DE2E82E8DE0E7
:10374000F82E9CE2D92EB7018CE691E20E94E44962
:10375000892BD1F001151105B9F0DE01F701249193
:10376000ED012196C8010197222341F00130110596
:1037700029F02C93DE0131968C01F1CFDC928C0183
:1037800088E1E80EF11CDFCF2197188285E6DF91F2
:10379000CF911F910F91FF90EF90DF900895FC0162
:1037A000209120022068209320028091230280FF34
:1037B000FCCF81E080932302A0911002B09111020E
:1037C000AE5BB109B7FF02C0A0E0B0E020E038EB8B
:1037D0004BE050E00E945349AA27BB279F938F9349
:1037E00024EF3AE03F932F9382E08F931F92FF9351
:1037F000EF930E94724A8DB79EB708968DBF9EBF09
:1038000085E608952EB13FB1409108045091090416
:10381000242B352B3F932F932EEE3AE03F932F939B
:1038200022E02F931F929F938F930E94724A8DB72D
:103830009EB708968DBF9EBF85E608950F931F9390
:10384000CF93DF931F921F92CDB7DEB78B01E0912C
:10385000682BF091692B8581873009F06FC0E0916A
:10386000552BF091562B199581E08093DD2960E26C
:1038700070E0C8010E942A4A0097F9F4F80101900B
:103880000020E9F73197E01BF10BE0FD59C0F695F8
:10389000E795E130F10539F487E090E080934B2B18
:1038A00090934C2B37C053E0EE0FFF1F5A95E1F772
:1038B000E0934B2BF0934C2B2DC098012C5F3F4F86
:1038C00082179307E9F5A80162E070E0CE01019646
:1038D0000E944A0E898190E0982F88272A81820FC2
:1038E000911D80934B2B90934C2B0B5F1F4FF80136
:1038F00001900020E9F73197E01BF10BE0FD20C0BB
:10390000F695E79533E0EE0FFF1F3A95E1F7E817DC
:10391000F907B0F060914B2B70914C2B695F7F4F92
:1039200083E0769567958A95E1F7A8018BE49AE2A2
:103930000E944A0E0E94D3298FEF03C089EC01C078
:103940008AEC0F900F90DF91CF911F910F91089506
:10395000EF92FF920F931F93CF93DF931F921F92CB
:10396000CDB7DEB78B01E091682BF091692B858193
:10397000873009F080C0E091552BF091562B1995B6
:1039800082E08093DD2960E270E0C8010E942A4A4B
:103990007C01009731F5F80101900020E9F731979B
:1039A000E01BF10BE0FD69C0F695E795E130F1050C
:1039B00039F487E090E080934B2B90934C2B47C0D9
:1039C00063E0EE0FFF1F6A95E1F7CF0169E070E059
:1039D0000E945949E81BF90BE0934B2BF0934C2BB9
:1039E00036C0C8010496E816F90609F046C0A801D9
:1039F00062E070E0CE0101960E944A0E298130E01B
:103A0000322F22278A81280F311D20934B2B309390
:103A10004C2B2730310529F0C90187709927892B54
:103A200061F587010F5F1F4FF80101900020E9F752
:103A30003197E01BF10BE0FD20C0F695E79543E0E0
:103A4000EE0FFF1F4A95E1F7E217F307B0F0609120
:103A50004B2B70914C2B695F7F4F83E07695679578
:103A60008A95E1F7A8018BE49AE20E944A0E0E942F
:103A7000D3298FEF03C089EC01C08AEC0F900F901F
:103A8000DF91CF911F910F91FF90EF900895E091FA
:103A9000682BF091692B85818730A1F4E091552B3B
:103AA000F091562B199584E08093DD290E941D36F4
:103AB0000E94D32987E296E380939E2990939F29C1
:103AC0008FEF089589EC0895E091682BF091692BB0
:103AD00085818730A1F4E091552BF091562B1995F3
:103AE00083E08093DD290E941D360E94D32987E25E
:103AF00096E380939E2990939F298FEF089589ECF8
:103B00000895E091682BF091692B85818730A1F4AD
:103B1000E091552BF091562B199585E08093DD2986
:103B20000E941D360E94D32987E296E380939E2946
:103B300090939F298FEF089589EC0895E091682B69
:103B4000F091692B4085518564E6649F9001659FE3
:103B5000300D11243F932F9328EE3AE03F932F939B
:103B600022E02F931F929F938F930E94724A8DB7EA
:103B70009EB708968DBF9EBF85E60895CF93DF93CD
:103B80001F921F92CDB7DEB7FB0120812F33B1F416
:103B90002181211113C026EB3AE03F932F9322E0BD
:103BA0002F931F929F938F930E94724A0F900F90B2
:103BB0000F900F900F900F9085E627C089E592E057
:103BC00089839A83CE0101969F938F9382EB9AE02B
:103BD0009F938F937F936F930E94A84A0F900F90AB
:103BE0000F900F900F900F90892B71F089819A811F
:103BF0008935F2E09F0740F4E091682BF091692B42
:103C00008087918784E601C08AEC0F900F90DF9146
:103C1000CF91089520911F202F9320911E202F9344
:103C20002FEA3AE03F932F9322E02F931F929F9326
:103C30008F930E94724A8DB79EB708968DBF9EBF24
:103C400085E60895CF93DF931F921F92CDB7DEB71D
:103C5000FB0120812F33B1F42181211113C02FE00A
:103C60002F932FEF2F932EE53AE03F932F9322E0EF
:103C70002F931F929F938F930E94724ACDBFDEBFF6
:103C800085E627C019821A82CE0101969F938F93F1
:103C90008AE59AE09F938F937F936F930E94A84A3F
:103CA0000F900F900F900F900F900F90892B81F035
:103CB00089819A818115E0E19E0750F48093380351
:103CC0009093390380931E2090931F2084E601C0B7
:103CD0008AEC0F900F90DF91CF910895FB01208126
:103CE0002F33D9F42181211121C01F9220E32F937A
:103CF0001F9221E32F9324E53AE03F932F9322E094
:103D00002F931F929F938F930E94724A8DB79EB7F5
:103D10000A968DBF9EBF85E60895213311F4B3D373
:103D200003C0203319F4D4D384E608958AEC0895AF
:103D3000FC0180910008813021F480918C0883304F
:103D400011F080E301C081E38083118285E608954C
:103D500021E020939D2920939C292CE320939929ED
:103D600025E030E0209397293093982910929129EB
:103D700010929229109293291092942980938F295E
:103D800090939029089527E020939D292CE231E01B
:103D90002093972930939829109291291092922973
:103DA000109293291092942980938F2990939029AF
:103DB0000895CF9390919D299530E1F130F493309F
:103DC00029F140F5913068F440C1973009F4A7C05B
:103DD00008F445C0983009F4AAC0993009F432C1FA
:103DE00034C1813041F41092952910929629109295
:103DF0009A2983E0FBC0843011F466E08BC08831DF
:103E000009F420C18B3109F0F3C01CC180939B29B8
:103E100084E0ECC090E040919B292FEF30E0241B20
:103E200031098217930721F485E0E0C0981739F132
:103E300065E169C02091952930919629A9014F5FCC
:103E40005F4F4093952950939629F901E654F44D1C
:103E500080834038510509F0CBC086E0C7C020916F
:103E60009B2990919C29291346C0EAEBFBE290E044
:103E70002CE2EA33F207D1F22191920FF9CF40916F
:103E80009129509192296091932970919429E09100
:103E90008F29F091902920E830E08AEB9BE2199578
:103EA000C82F882311F180919C298F5F80939C29D2
:103EB0008091912990919229A0919329B091942970
:103EC00080589F4FAF4FBF4F809391299093922975
:103ED000A0939329B093942966E083E090E20E9436
:103EE000E14782E080939D29B1C068E183E090E2E0
:103EF0000E94E1470EC030E0892F90E0019728171B
:103F0000390739F466E083E090E20E94E14782E0FD
:103F10006DC068E183E090E20E94E14793C0853183
:103F200019F410929C2909C08B3109F48BC0883197
:103F300009F463CF863009F05DC080919C298F5FC2
:103F400080939C29409191295091922960919329C5
:103F500070919429E0918F29F091902920E830E028
:103F60008AEB9BE21995C82F8823D1F161E083E0A9
:103F700090E20E94E14760919C2983E090E20E94D8
:103F8000E14760919C29609583E090E20E94E147BF
:103F900060E870E08AEB9BE2B9D8EAEBFBE260E014
:103FA0008CE2EA33F80719F08191680FF9CF83E0CA
:103FB00090E20E94E1478091912990919229A091ED
:103FC0009329B091942980589F4FAF4FBF4F809352
:103FD000912990939229A0939329B093942936C064
:103FE00064E083E090E20E94E14789E080939D29AC
:103FF000C1E02CC08531E1F761E083E090E20E94EE
:10400000E14760919C2983E090E20E94E147609142
:104010009C29609583E090E20E94E14760E870E0AF
:104020008AEB9BE273D8EAEBFBE260E02CE2EA3336
:10403000F20719F08191680FF9CF83E090E20E94B6
:10404000E147D6CF10929D29D3CFC0E08C2FCF91DE
:10405000089580919D29813019F0873029F10895C4
:1040600080919729909198299C01215031092093A2
:10407000972930939829892B31F5809199299FEFC1
:10408000980F90939929882331F065E183E090E2BD
:104090000E94E14702C010929D2985E090E0809344
:1040A000972990939829089580919729909198291C
:1040B0009C01215031092093972930939829892B0D
:1040C00011F410929D290895E4E0FCE020E030E036
:1040D0009491981309C041E2429FC001439F900D03
:1040E00011248B5F934F08952F5F3F4FB196293076
:1040F000310571F780E090E00895CF92DF92EF9262
:10410000FF920F931F93CF93982F9F7D91549A31D5
:1041100060F090ED980F9A3040F08F3531F0982F85
:104120009D7F9D3311F08032D1F49FE9980F9A3131
:1041300008F480522091A3293091A4292F3F91E0C7
:10414000390708F0D3C0A9014F5F5F4F4093A329FF
:104150005093A429F901E654F44D8083C7C08D30F3
:1041600009F095C0E091A329F091A429E654F44DFB
:1041700010821092A3291092A4298091A229811162
:10418000B5C08091BA2B982F9F7D09F495C08D7F83
:104190008D3309F491C0EAEBFBE27F01C191CC239E
:1041A00031F0CF3321F0CD3311F0C032B1F7F70148
:1041B00010828DE2C82E8DE0D82E00E010E0B6010E
:1041C0008AEB9BE20E94E449892B09F056C01092C9
:1041D000BA2BCF3349F488E1809FF001819FF00D25
:1041E0001124ED5BF24F18C0B7016F5F7F4FCD33E5
:1041F00049F488E1809FF001819FF00D1124EF5B6D
:10420000F24F20C0C11113C088E1809FF001819F4F
:10421000F00D1124E35CF24F259134912115310505
:1042200009F44DC08AEB9BE2F901199514C0C03224
:1042300009F045C088E1809FF001819FF00D1124B5
:10424000E15CF24F2591349121153105C1F18AEBE2
:104250009BE2F90119958F3F99F581E08093A2299E
:104260008EB19FB12091080430910904822B932BC9
:104270008093A0299093A12939C00F5F1F4FF8E1C7
:10428000CF0ED11C0632110509F099CF15C0883028
:1042900061F48091A3299091A429009739F10197A5
:1042A0008093A3299093A42921C08B31F9F4109213
:1042B000A3291092A4291AC088ECC0E002C089EC9E
:1042C000C1E002DF0E94751881E09CE00E94751831
:1042D000CC2361F08091BA2B882341F08AEB9BE2DA
:1042E0000E9470188EEF9BE00E94751881E0CF91BC
:1042F0001F910F91FF90EF90DF90CF9008958091E4
:10430000A229882399F1E091682BF091692B2085EF
:1043100031852115310551F18EB19FB140910804CD
:1043200050910904842B952B4091A0295091A129EB
:10433000841B950B64E670E00E945949621773076D
:10434000A8F01092A2298BECBFDE0E9475188BEFAB
:104350009BE00E947518E0919E29F0919F2930976B
:1043600029F0199510929E2910929F290895809105
:10437000A2298823A9F01092A2298BECA5DE0E9425
:1043800075188BEF9BE00E947518E0919E29F091C3
:104390009F29309729F0199510929E2910929F29F4
:1043A0000895CF93DF939091A2299923A9F0EB016F
:1043B0001092A22989DE0E94751888EF9BE00E9466
:1043C0007518209749F0CE010E94701885EF9BE088
:1043D000DF91CF910C947518DF91CF910895EF92F2
:1043E000FF920F931F93CF937C019B01613081E07B
:1043F000780710F020E031E08B01021B130BA701BE
:1044000060E072E08AEB9BE20E94100E8AEB9BE276
:104410000E947018C1E0013081E01807B0F01A95D1
:104420006C2F70E0762F6627A701460F571F20E0FC
:1044300032E060E072E08AEB9BE20E94100E8AEBB1
:104440009BE20E947018CF5FE6CF0115110591F035
:10445000EC2FF0E0FE2FEE27A7014E0F5F1F980113
:1044600060E072E08AEB9BE20E94100E8AEB9BE216
:104470000E94701882EF9BE0CF911F910F91FF90E7
:10448000EF900C94751880910008813029F4809188
:104490008C08833009F408958091A729811117C0F1
:1044A00081E08093000893E090938C088093A52985
:1044B0001092A6298EB19FB1209108043091090471
:1044C000822B932B8093AC299093AD290895089566
:1044D00010928C0810920008E5EAF9E2108211822D
:1044E00008959091A5299923F1F08091A629811131
:1044F00015C02091A5292223B9F02EB13FB14091DA
:10450000080450910904242B352B4091AC2950917B
:10451000AD29241B350B2634310530F081E0809322
:10452000A629892F089581E00895CF93DF931F92E4
:10453000CDB7DEB78091A7298823D1F02EB13FB146
:104540004091080450910904242B352B4091AA294D
:104550005091AB29241B350B4091A8295091A929D2
:104560002417350728F01092A72989838CDF8981C9
:104570000F90DF91CF910895A0E2B6E081E015960B
:104580008C9315972AEB3DE228B939B92AE33EE22C
:104590002AB93BB910B813B812B816B817B811B881
:1045A000E0E0F9E010A211A22FEF30E026A337A33C
:1045B0002FEF3FEF20A731A7808388E8838380E136
:1045C000848783E087831C968C931C9782E01A96DD
:1045D0008C9308951F920F920FB60F92112408B674
:1045E0000F9218BE0BB60F921BBE8F939F93EF9343
:1045F000FF93E0E0F9E013828FE790E086AB97ABA2
:1046000081E190E080AF91AFE0E0FAE010A211A26A
:104610008FEF9FEF86A397A389E88383168281E0BB
:1046200084878EE0808310922A06FF91EF919F91FC
:104630008F910F900BBE0F9008BE0F900FBE0F9082
:104640001F9018951F920F920FB60F92112408B663
:104650000F9218BE0BB60F921BBE2F933F938F93F2
:104660009F93EF93FF932091280693B1267081E0EA
:1046700009F080E0990F892B83B982B1882309F46E
:1046800064C012B883B18770873059F51092000961
:1046900080E180930C091092030A1B9B03C08CEAF3
:1046A00094E002C08CE694E08093260A9093270A57
:1046B00082E081B981E080930C0A83E08093060A4E
:1046C00086B197B1877049F090B18F5F893011F052
:1046D0009695FBCFE8B1F9B1908381E08093AE2944
:1046E00037C093B1892F8C7099F192FB992790F97B
:1046F00081E0982781B181111BC080B1869591110D
:1047000090E8892B80B926B137B12F5F3F4F26B98A
:1047100037B927703327232BD9F4E8B1F9B19F01BA
:104720002F5F3F4F28B939B9808381E081B910C02C
:1047300081B1813069F4EAB1FBB19F012F5F3F4F36
:104740002AB93BB9908311B803C082B1809582B970
:10475000FF91EF919F918F913F912F910F900BBE01
:104760000F9008BE0F900FBE0F901F9018951F92CC
:104770000F920FB60F92112408B60F9218BE0BB607
:104780000F921BBE2F933F938F939F93EF93FF93B3
:1047900081B1823008F49FC081B18D3008F09BC098
:1047A000E1B1F0E0EE0FFF1FEA5DFF4D0190F081F7
:1047B000E02D19948FE790E08093260A9093270AC2
:1047C0008AC08E9A8EE0809340088FE390E08093B9
:1047D000260A9093270A85E071C08E9886E081B9F9
:1047E0008FEF82B914B815B8E8B1F9B1808180B9FA
:1047F00072C0009B05C08E9A82B1809582B901C0BB
:104800008E9887E05BC0009B02C08E9801C08E9A94
:1048100080B1869580B984B195B1019684B995B976
:1048200084B195B187709927892B11F488E046C02F
:1048300024B135B186B197B128173907C1F52DC01C
:10484000EAB1FBB1309711F0808101C082B18823B9
:1048500011F08E9A01C08E9889E030C0EAB1FBB1A8
:10486000309761F08081882311F08E9801C08E9A74
:104870008AB19BB101968AB99BB908C082B18823DD
:1048800011F08E9801C08E9A8FEF82B924B135B1A4
:1048900086B197B12817390711F48AE00FC0E8B143
:1048A000F9B1CF01019688B999B9818180B986E0C3
:1048B00005C08E988BE002C08E988CE081B90BC049
:1048C0001092000A1092060A1092400810924108B5
:1048D00081E08093AF29FF91EF919F918F913F915C
:1048E0002F910F900BBE0F9008BE0F900FBE0F9030
:1048F0001F901895CF93DF93EEEAF9E210821182B0
:10490000E0E4F6E0128A84E08283C0E8D1E082E647
:104910008E83A0E2B6E081E016968C9316971196EE
:104920008C93119796E012969C93129751968C93C4
:10493000519742E052964C9352971A961C921A97AE
:1049400033E019963C9399E598839AE5998390E42E
:1049500091839683A0EBB0E012962C911297207F62
:1049600012962C93129712962C91129722601296FF
:104970002C9320E321832683908B86834583318388
:10498000E0E0F8E083E1818321E030E026A337A373
:1049900020A731A7E0E8F8E014868083E0E2F3E0A6
:1049A0001382118288E0828391E1908320911E20FE
:1049B00030911F20208F318FE0E8F3E09CE3928359
:1049C000808393838183DF91CF91D6CDA0E2B6E03F
:1049D0001A961C921A97EEEAF9E210821182E0E030
:1049E000F9E010821382178280E18487E0E0FAE028
:1049F00010821382168281E08487E0E4F8E010825E
:104A0000118216968C938E980895CF93DF938091A0
:104A1000AE29882309F47EC01092AE29C6B1D7B161
:104A2000C730D10508F471C0AE01495F5F4F93E014
:104A3000569547959A95E1F7E091652BF091662B95
:104A40006AEB7DE280E41995E091682BF091692B87
:104A50008781883019F483E180938B29868188309F
:104A600019F483E180938A29E0915B2BF0915C2B10
:104A7000BE018AEB9DE21995EC0194FF06C0DF7E32
:104A80008AE39EE28AB99BB902C01AB81BB8209784
:104A9000E1F1AE01495F5F4F83E0569547958A95F6
:104AA000E1F7E091652BF091662B6AEB7DE281E402
:104AB0001995E091682BF091692B8781893019F461
:104AC00083E180938B298681893019F483E1809377
:104AD0008A29C6B9D7B98AEB9DE288B999B91092EB
:104AE0006008109261088FE090E0809366089093D0
:104AF000670888E090E080936A0890936B0883E2EF
:104B00008093410883E081B905C01092000A109299
:104B1000060A32DD8091AF29882329F01092AF294F
:104B2000DF91CF9129CDDF91CF910895CF93DF937E
:104B3000E0E4F6E0128A84E08283C0E8D1E082E615
:104B40008E83A0E2B6E081E016968C9316971196BC
:104B50008C93119796E012969C93129751968C9392
:104B6000519742E052964C9352971A961C921A977C
:104B700033E019963C93199799E598839AE59983C0
:104B800090E491839683C0EBD0E02A81207F2A8332
:104B90002A8122602A8320E321832683908B8683C7
:104BA00045833183E0E0F8E093E1918321E030E058
:104BB00026A337A320A731A7E0E8F8E01486908366
:104BC000E0E2F3E01382118298E0928341E14083B6
:104BD00040911E2050911F20408F518FE0E8F3E05C
:104BE0004CE3428390834383918315968C93E0E05A
:104BF000F9E08FE790E086A397A322A733A710825E
:104C000016828CE087831092000A1092B029E3EBA1
:104C1000F9E2108212821182DF91CF91089581E032
:104C20008093260655DCE0E0F9E010821782E0E090
:104C3000FAE010821782E3EBF9E21182128210820D
:104C400008951F920F920FB60F92112408B60F927B
:104C500018BE0BB60F921BBE2F933F938F939F935B
:104C6000EF93FF93E091B029F0E0EE0FFF1FE05CBF
:104C7000FF4D0190F081E02D199410928C08109254
:104C8000000886E18A95F1F700C081E08093000872
:104C900083E080938C0818B88091BA2D86B917B834
:104CA00082E001C083E08093B02986C0309911C0B2
:104CB00082B181110EC010928C081092000896E10A
:104CC0009A95F1F700C081E08093000883E080931B
:104CD0008C0884E0E8CF309B10C010928C081092B2
:104CE000000886E18A95F1F700C081E08093000812
:104CF00093E090938C0882B901C012B886B1869572
:104D000086B984B195B1019784B995B9892B11F40D
:104D100085E001C083E08093B02987B18F5F87B9B8
:104D2000877009F049C0E8B1EF5FE8B9F0E0E654F8
:104D3000F24D808186B940C082B181110EC01092BF
:104D40008C081092000896E19A95F1F700C081E076
:104D50008093000883E080938C0886E0A4CF1092B3
:104D6000000982E591E00197F1F700C0000082E0C0
:104D70008093870389E3809381038AEB9DE28AB95C
:104D80009BB981E090E084B995B980E886B98EB18D
:104D90009FB12091080430910904822B932B8093BA
:104DA000B1299093B22981E08093B52918B817B83A
:104DB0001092B02901C000C0FF91EF919F918F9197
:104DC0003F912F910F900BBE0F9008BE0F900FBE1A
:104DD0000F901F9018951F920F920FB60F921124EB
:104DE00008B60F9218BE0BB60F921BBE2F933F93BF
:104DF0004F935F938F939F93EF93FF931092070AC4
:104E00001092000A10924709109240098091810384
:104E10008E7F8093810384B195B187709927892B08
:104E2000C9F0E4B1F5B186B144B155B193E0F6955E
:104E3000E7959A95E1F7E654F24D90E047705527D3
:104E400028E030E0241B350B02C0959587952A9504
:104E5000E2F7808381E08093B4291092B5298FEF27
:104E60009FEF8093260A9093270A1092200A1092AF
:104E7000210A1092060A1092070A1092030A84E08F
:104E80008093000A87E08093B029FF91EF919F9172
:104E90008F915F914F913F912F910F900BBE0F908B
:104EA00008BE0F900FBE0F901F9018951F920F9283
:104EB0000FB60F92112408B60F9218BE0BB60F92C0
:104EC0001BBE8F93EF93FF93E0E8F3E081818F7C2B
:104ED0008183E0E0FAE088E8838381E08083FF91CA
:104EE000EF918F910F900BBE0F9008BE0F900FBEE9
:104EF0000F901F9018951F920F920FB60F921124CA
:104F000008B60F9218BE0BB60F921BBE2F933F939D
:104F10004F935F938F939F93EF93FF9380916009DB
:104F2000109260091092610992E0909340098136D5
:104F300020F0813A08F063C077C086B1869586B9C3
:104F400084B195B1019684B995B987709927892B59
:104F500041F4EAB1FBB1CF0101968AB99BB986B1A0
:104F6000808384B195B180FD88C0369986C0109247
:104F7000070A1092000A1092470910924009809186
:104F800081038E7F8093810384B195B187709927C7
:104F9000892BC9F0E4B1F5B186B144B155B193E0C4
:104FA000F695E7959A95E1F7E654F24D90E0477053
:104FB000552728E030E0241B350B02C095958795D6
:104FC0002A95E2F7808381E08093B4291092B52975
:104FD0008FEF9FEF8093260A9093270A1092200A62
:104FE0001092210A1092060A1092070A1092030AE0
:104FF00084E08093000A87E08093B0293EC086B1A8
:105000008695806886B984B195B1019684B995B9C1
:1050100087709927892B41F4EAB1FBB1CF01019642
:105020008AB99BB986B1808386B18695806886B936
:1050300084B195B1019684B995B987709927892B68
:1050400041F4EAB1FBB1CF0101968AB99BB986B1AF
:10505000808386B1869586B984B195B1019684B96D
:1050600095B987709927892B41F4EAB1FBB1CF013B
:1050700001968AB99BB986B18083FF91EF919F9188
:105080008F915F914F913F912F910F900BBE0F9099
:1050900008BE0F900FBE0F901F901895BF92CF9231
:1050A000DF92EF92FF920F931F93CF93DF93CDB7D1
:1050B000DEB7DA95CDBFDEBF8091B5298823F1F048
:1050C0008EB19FB140910804509109042091B129FB
:1050D0003091B229842B952B821B930B2091202099
:1050E000309121202F5F3F4F2817390738F414B82B
:1050F00015B881E08093B4291092B52916DA811190
:1051000045C1EFD9882309F441C18091B5298111A6
:105110003DC18091B329811105C08091B4298823B4
:1051200009F434C18091B029873041F48091200A7C
:105130009091210A8532914008F428C18091B429C8
:10514000882309F4A7C084B195B1892B09F4A2C0C2
:1051500084B195B1089718F414B815B89BC044B140
:1051600055B1495F5F4F63E0569547956A95E1F702
:105170006AEB7DE2CE0101960E94094A8AEB9DE22C
:105180008AB99BB904B115B114B815B8C12CD12C8A
:1051900073E1B72EE8E0EE2EF12CC016D10608F030
:1051A00079C0F60153E0F695E7955A95E1F741E0AD
:1051B00050E04C0F5D1FE40FF51F8081982F9695EE
:1051C000969590838370813039F0E8F0823009F051
:1051D0005AC086B1869503C086B18695806886B927
:1051E00084B195B1019684B995B987709927892BB7
:1051F00009F049C0EAB1FBB1CF0101968AB99BB968
:1052000086B1808340C084B195B187709927892B7E
:10521000C9F0E4B1F5B186B124B135B143E0F695FA
:10522000E7954A95E1F7E654F24D90E02770332771
:10523000A701421B530B042E02C0959587950A9433
:10524000E2F78083E091682BF091692B87818830A9
:1052500011F4B0928B298681883011F4B0928A299A
:1052600044B155B1495F5F4F93E0569547959A9584
:10527000E1F7E091652BF091662B6AEB7DE282E429
:10528000199581E001C080E052E0C50ED11C882351
:1052900009F483CF1092B3291092B42964B175B187
:1052A000E0915B2BF0915C2B8AEB9DE2199584B920
:1052B00095B984B195B1892B09F468C089E08093D0
:1052C00081031092000A1092200A1092210A8FE79F
:1052D00090E08093260A9093270A8FE590E08093D0
:1052E000280A9093290A1092060A80E180930C0AFA
:1052F00093E09093070A10926009109261092FEFD2
:105300003FEF209366093093670920E031E0209356
:105310006809309369091092460980934C0981E02D
:105320008093470981E18093800110928801109257
:10533000800310922906E091682BF091692B8781F8
:10534000893019F483E180938B298681893019F49F
:1053500083E180938A2944B155B1495F5F4F83E06F
:10536000569547958A95E1F7E091652BF091662B6C
:105370006AEB7DE283E4199581E08093B02912B84D
:10538000109220091092210980930009D395CDBF76
:10539000DEBFDF91CF911F910F91FF90EF90DF90D3
:1053A000CF90BF90089514B815B881E08093B329C9
:1053B0006AC81092070A1092000A109247091092C8
:1053C0004009809181038E7F8093810384B195B1E0
:1053D00087709927892BC9F0E4B1F5B186B144B142
:1053E00055B193E0F695E7959A95E1F7E654F24DBD
:1053F00090E04770552728E030E0241B350B02C0B1
:10540000959587952A95E2F7808381E08093B4296A
:105410001092B5298FEF9FEF8093260A9093270A69
:105420001092200A1092210A1092060A1092070A7E
:105430001092030A84E08093000A87E08093B029E9
:105440001092B0291092B4291092B32941C881E07A
:105450008093B8291092B629089581E08093B829E5
:1054600008950895CF92DF92EF92FF920F931F93CA
:10547000CF93DF93CDB7DEB72597CDBFDEBF8C01CD
:10548000FC0180819091B8299230F1F038F094308D
:1054900079F120F1953009F44AC048C121E0922702
:1054A000292F21702093B629911102C0863219F05C
:1054B000823509F03BC184E4F8018083118282E0E7
:1054C0008093B82980E133C19091B629911102C02F
:1054D0008632B1F0823509F04DC012C09091B629E4
:1054E000911102C0863261F0823509F075C008C0A2
:1054F0009091B629911102C0863211F0823539F4AB
:1055000084E4F8018083118281E089270DC0803313
:1055100009F41AC1823A09F432C1803A09F44EC141
:10552000803509F4F6C081E08093B829FFC060E1BE
:1055300070E0C8010E9447338823A1F08091642B5A
:1055400081110BC06091B729F4E06F9FB001112465
:1055500044E050E0C8010E94070F84E08093B8291E
:105560008AE004C084E08093B82981E0F801808358
:1055700084E0DDC08339B9F619821A821B821C824D
:1055800088E8898343E050E060E070E0CE01029655
:105590000E94B90EF8018181803209F4ABC08037D6
:1055A00009F048C0F801928189819813BFC09381A6
:1055B0008A819813BBC094818B819813B7C0958161
:1055C0008C819813B3C084E0808361E070E0C801EF
:1055D0000E941C3383E02AC0853909F0A4CF44E03F
:1055E00050E064E070E0CE0101960E94B90EF8012F
:1055F0008181803209F47EC08037E1F4F801928124
:105600008981981393C093818A8198138FC0948164
:105610008B8198138BC095818C81981387C01082E1
:1056200061E070E0C8010E941C3384E08093B829D7
:1056300088E17DC0E82EE2949FE0E9222EEF2E0D56
:105640008F70F82E88E090E08F1991094FEF50E0AD
:105650006A0102C0D594C7948A95E2F7253021F0FB
:10566000243059F5FF20E9F044E050E0B8016E5FC6
:105670007F4FCE0101962D830E94FC492D81892BFD
:1056800061F49A81898189279B8189279C81892757
:10569000F801968189278C2169F1243071F4F11089
:1056A00045C044E050E0B8016E5F7F4FCE010196E7
:1056B0000E94FC49892BF1F039C02430B8F5E22E64
:1056C000F12CA701B8016E5F7F4FCE0101960E94B9
:1056D000FC49892B59F5D801AE0DBF1DE1E0F0E082
:1056E000EC0FFD1FEE0DFF1D12969C918081892706
:1056F000C822E1F42981F80120833A8131839B811A
:1057000092838C818383232792278927848388E24D
:105710000EC0F801818181113FC062E070E0C801D4
:10572000B6D7882309F421CF1092B82980E090E001
:105730002596CDBFDEBFDF91CF911F910F91FF90D6
:10574000EF90DF90CF900895F801F18062E070E073
:10575000C8019DD7882309F408CFFFE0FF15E0F0CA
:1057600084E0F89EB001112440E150E0C8010E949D
:10577000B90E60E170E0C8015FD780E9D8CFF801C9
:10578000F18066E070E0C80182D7882309F4EDCE8D
:105790008EEF8F0D8E3018F0F8011082E9CE8091D7
:1057A000642B8111DDCEF4E0FF9EB001112444E0B2
:1057B00050E0C80102960E94070FD2CEF801F18096
:1057C00062E070E0C80163D7882309F4CECE8EEF83
:1057D0008F0D8E3008F7F092B72985E0BFCECF93BA
:1057E000DF93EC0143E050E060E070E00E94B90E0E
:1057F00044E050E064E070E0CE010396DF91CF9189
:105800000C94B90E0F931F93CF93DF931F921F92A7
:10581000CDB7DEB78C01FC0190818181892798E8A2
:105820008927928189278A83948183818927958119
:10583000892796818927898343E050E060E070E002
:10584000C8010E94070F41E050E063E070E0CE0124
:1058500002960E94070F44E050E064E070E0C80147
:1058600003960E94070F41E050E068E070E0CE012F
:1058700001960E94070F0F900F90DF91CF911F911B
:105880000F91089581E08093D62984E090E0809381
:10589000BB299093BC2988E08093BA291092B9293A
:1058A000089581E08093D62984E490E08093BB2919
:1058B0009093BC2988E08093BA291092B929089561
:1058C00081E08093D62982E490E08093BB29909375
:1058D000BC2988E18093BA291092B929089581E002
:1058E0008093D629089508958F929F92AF92BF9288
:1058F000CF92DF92EF92FF920F931F93CF93DF939C
:10590000CDB7DEB72F97CDBFDEBF8C016B01809185
:10591000D629853009F4D5C058F4823009F448C03E
:1059200048F1833009F499C0843009F4B4C070C5DB
:10593000883009F466C190F4863009F45AC0873083
:1059400009F066C5C801C1D76801F4E0CF0ED11CCB
:105950007601580128E0A20EB11CF0C0893009F48C
:10596000E8C28D3008F054C578016801B6E0CB0E6E
:10597000D11C1CC391E08927982F91709093B9296D
:105980002091BB299091BC29811104C0D8018C9130
:10599000863229F0F8018081823509F0C7C3D80129
:1059A0002C9311969C9384E08093D62980E131C595
:1059B000D8018C91982F9D7F913411F48AE0F9C120
:1059C0008033A9F562E070E0C80161D6882369F1EF
:1059D000F8016181F0E16F9FB001112440E150E0D6
:1059E000C8010E94B90E60E170E0C80125D680E9C7
:1059F00010C59091B9293091BB292091BC299923D8
:105A000009F476C0D8018C91823509F476C08035CE
:105A100009F479C090EA980F923008F079C562E0F5
:105A200070E0C80134D68111F6C481E0C1C1803A6A
:105A300081F462E070E0C8012AD68823B1F3F8014E
:105A400081818093CD2983E08093D6298AE0808369
:105A5000ABC2803509F0DCC456C060E170E0C8011B
:105A600016D6882399F08091642B81110BC0609128
:105A7000CD29F0E16F9FB001112440E150E0C80151
:105A80000E94070F8AE0D8018C9303C081E0F801DF
:105A9000808382E087C22091B9293091BB2980910F
:105AA000BC29211104C0D8019C91963229F0F8013B
:105AB0009081923509F042C3D8013C9311968C93A2
:105AC00014C02091B9293091BB298091BC292111A2
:105AD00004C0F8019081963229F0D8019C9192354A
